S011000050505F6472697665722E7372656388
S11300001DC02CC046C02AC029C028C054C026C068
S113001025C029C023C042C521C06DC51FC01EC054
S1130020B0C01CC01BC091C693C695C697C699C6DE
S11300309BC69DC69FC6A1C6A3C6A4C611241FBE47
S1130040CFE5D4E0DEBFCDBF21E0A0E6B0E001C043
S11300501D92A03FB207E1F7A5D0D1C6D1CF8BE95D
S113006090E040D608951F920F920FB60F9211247C
S11300708F938091780082608093780080916800EB
S11300808F5F809368008F910F900FBE0F901F9029
S113009018951F920F920FB60F9211248F9380918F
S11300A07800816080937800C0988F910F900FBE84
S11300B00F901F9018951F920F920FB60F92112454
S11300C02F933F934F935F938F939F9380916600F9
S11300D09091670001968032910529F09093670012
S11300E0809366000DC010926700109266008091A4
S11300F0640090916500019690936500809364007C
S113010080916000909161002091620030916300C1
S11301102817390790F4AC01421B530B4B3051059F
S113012038F0265F3F4F309363002093620016C07F
S1130130909363008093620011C0A901481B590B7E
S11301404B30510538F0265F3F4F309363002093C6
S1130150620004C090936300809362008091620007
S113016090916300809590959BBD8ABD9F918F91DE
S11301705F914F913F912F910F900FBE0F901F9061
S113018018951F920F920FB60F9211248F9380919E
S113019078008062809378008F910F900FBE0F904B
S11301A01F901895A6D09CD0A1D0A9D0ADD0D6D4FC
S11301B08DE996E090936A00809369008FE290E065
S11301C090936C0080936B0080E190E0C0D07894B1
S11301D06894FF24F4F8C4EBD0E00BEA10E00F2E8F
S11301E0C12CFDE7DF2EF02DC5D48091780081FF6E
S11301F004C08D7F809378004CD580916800823351
S113020059F482B38F2582BB47E350E060E070E08D
S113021083E0D6D0109268008091640090916500CC
S1130220883C910521F4109265001092640080913D
S1130230780082FD06C08091620090916300892B52
S113024011F4AD9A01C0AD9895D4DAD38111CCCF15
S113025038D5DC01F8018D918193EC17FD07D9F7AE
S113026080916E00877F80936E00C3D08111BCCFD4
S1130270DFD0833019F08530A9F02CC0809178004C
S11302808460809378001092610010926000409125
S11302909700509198006091990070919A0084E6BB
S11302A08FD0A2CF4091970050919800609199000F
S11302B070919A0041308DE7580728F0D092610080
S11302C0C092600004C0509361004093600084E6D3
S11302D077D08ACF40E050E0BA0183E071D084CF78
S11302E089E085BF8BB780688BBF089587E088B9A4
S11302F0089584E083BF89B7816089BF089580E150
S11303008FBD8AE08EBD0895949A95988FEF84BB33
S113031095B385BB87B3876087BB81B3866381BB95
S1130320C19A0895E0916B00F0916C00309709F048
S113033009950895EBE9F0E083EA90E020E031913B
S1130340230FE817F907D9F72093A3000895CF9353
S1130350DF93EC019093B5008093B40045E050E046
S1130360BC0184EA90E014D58091A4008234A1F009
S113037082E48093A40084E08093A50083E08093CA
S1130380A6001092A70082E08093A80045E050E008
S1130390BE0184EA90E01DD5E0916900F0916A0005
S11303A0309719F08091A50009958091A800809359
S11303B0B6008091A6008093AA00DF91CF910895A2
S11303C09091B60090939B009091AA0090939C000A
S11303D080939D008091AC0080939E0070939F0059
S11303E06093A0005093A1004093A200A3DF9ADF82
S11303F008959091AB008091AA00981315C0EBEA80
S1130400F0E083EB90E020E03191230FE817F90747
S1130410D9F78091B300281749F040E050E0BA01C1
S113042081E0CEDF83E0089582E0089580E00895BE
S11304300F931F93CF93DF931F92CDB7DEB7209115
S1130440AF006091B000862F90E0A0E0B0E0DC0146
S113045099278827B22B2091B200822B2091B100DA
S1130460BC01CD01722B6093970070939800809328
S1130470990090939A002091AC00293009F4ACC102
S113048078F4243009F4B1C228F42130F9F0223090
S113049021F1A4C2253041F1263009F46CC09EC27A
S11304A02E3009F4E0C038F42A3009F42DC22D307E
S11304B009F490C193C2283809F469C22E3F21F08F
S11304C02F3009F08BC21AC18EEF94C240E050E085
S11304D0BA0184E675DF81E08DC240E050E0BA01E4
S11304E084E66EDF82E086C22091AE00222339F0DA
S11304F040E050E0BA0184E063DF80E07BC22091F9
S1130500AD002630E9F028F4243041F0253079F0AC
S11305102BC02730F1F02C3829F126C060938200DB
S11305207093830080938400909385001DC0609332
S1130530860070938700809388009093890014C08C
S113054060938A0070938B0080938C0090938D004D
S11305500BC060938E0070938F00809390009093F3
S1130560910002C06093920040E050E0BA0184E63A
S113057027DF80E03FC28091AE00882339F040E05D
S113058050E0BA0184E01CDF80E034C28091AD0009
S1130590863049F130F48430F1F1C8F4813059F0F7
S11305A05BC08C3809F443C0843C09F449C08730EB
S11305B009F052C024C040917E0050917F006091A8
S11305C080007091810084E6FBDE80E013C24091DC
S11305D0860050918700609188007091890084E6BC
S11305E0EFDE80E007C240918A0050918B00609159
S11305F08C0070918D0084E6E3DE80E0FBC14091C5
S11306008E0050918F00609190007091910084E66B
S1130610D7DE80E0EFC14091820050918300609169
S113062084007091850084E6CBDE80E0E3C14091D4
S1130630920050E060E070E084E6C2DE80E0DAC15F
S113064040919300509194006091950070919600B0
S113065084E6B6DE80E0CEC140E050E0BA0184E03A
S1130660AFDE80E0C7C12091AE00213009F4BFC1E4
S113067018F0223041F03BC040E050E0BA0183E082
S11306809FDE8EE0B7C12091AD00222319F0213006
S1130690A1F026C021E0672B682B692B09F420E028
S11306A08091790020FB80F98093790040E050E04C
S11306B0BA0184E685DE8EE09DC121E0672B682BBC
S11306C0692B09F420E08091790020FB81F9809363
S11306D0790040E050E0BA0184E672DE8EE08AC11F
S11306E040E050E0BA0183E06BDE8EE083C140E07D
S11306F050E0BA0183E064DE8EE07CC18091AE00FC
S1130700813029F030F0823009F441C072C18FE0A9
S113071071C18091AD00813081F028F08230C1F048
S1130720833011F12DC04091A900417050E060E088
S113073070E084E645DE80E05DC14091A900469505
S1130740417050E060E070E084E63ADE80E052C13F
S11307504091A90042FB442740F950E060E070E07A
S113076084E62EDE80E046C14091A90043FB442785
S113077040F950E060E070E084E622DE80E03AC1B7
S113078040E050E0BA0184E01BDE80E033C1809198
S1130790AD00882319F0813059F015C040917900DB
S11307A0417050E060E070E084E60ADE80E022C13F
S11307B0409179004695417050E060E070E084E635
S11307C0FFDD80E017C140E050E0BA0184E0F8DDCD
S11307D080E010C18DE00EC12091AE00222339F0DB
S11307E040E050E0BA0184E0EBDD80E003C12091F9
S11307F0AD00213441F118F4203441F07EC022349C
S113080009F43FC02C3409F45AC077C00091A40005
S113081010E020E030E0601771078207930761F071
S11308206093A400198249812091B4003091B500ED
S1130830C901840F911DBCD240E050E0BA0184E6A6
S1130840BFDD80E0D7C00091A50010E020E030E0DB
S1130850601771078207930769F06093A50021E090
S1130860298349812091B4003091B500C901840FD6
S1130870911D9ED240E050E0BA0184E6A1DD80E003
S1130880B9C00091A60010E020E030E060177107C5
S11308908207930769F06093A60022E029834981C7
S11308A02091B4003091B500C901840F911D80D20C
S11308B040E050E0BA0184E683DD80E09BC0009113
S11308C0A80010E020E030E060177107820793076A
S11308D069F06093A80024E0298349812091B40041
S11308E03091B500C901840F911D62D240E050E0FF
S11308F0BA0184E665DD80E07DC040E050E0BA01E5
S113090084E05EDD80E076C08091AE00882339F01B
S113091040E050E0BA0184E053DD80E06BC0809198
S1130920AD00813449F018F4803409F129C08234CF
S113093061F08C3499F024C04091A50050E060E04F
S113094070E084E63DDD80E055C04091A60050E0B3
S113095060E070E084E634DD80E04CC04091A800A3
S113096050E060E070E084E62BDD80E043C040911D
S1130970A40050E060E070E084E622DD80E03AC04C
S113098040E050E0BA0184E01BDD80E033C0809198
S1130990AD0081111BC08091B60080939B0081E360
S11309A080939C0090E390939D0022E320939E000B
S11309B080939F0036E53093A0008093A10020939C
S11309C0A2009093A300AEDC80E014C040E450E3A6
S11309D060E270E184E6F4DC80E00CC040E050E0CA
S11309E0BA0182E0EDDC80E005C084E003C08EE063
S11309F001C080E00F90DF91CF911F910F91089576
S1130A00209171009091720081E0291380E0089593
S1130A109091760080917700981761F0909177001B
S1130A209F5F9F70E92FF0E0E05BFE4F8081909321
S1130A307700089580E00895909176009F5F9F70FD
S1130A40E92FF0E0E05BFE4F8083909376000895F9
S1130A5090917500E92FF0E0E954FF4F80819F5F8A
S1130A6090937500089580916E0080FD0AC0809176
S1130A706E00816080936E00929A10927500E8DF98
S1130A808CB90895882311F0579A089557980895BA
S1130A90882311F0569A0895569808951F920F923C
S1130AA00FB60F9211242F933F934F935F936F933D
S1130AB07F938F939F93AF93BF93EF93FF9385E0BF
S1130AC0809370008BB190916F00892B80936F009D
S1130AD08CB1B2DFFF91EF91BF91AF919F918F9154
S1130AE07F916F915F914F913F912F910F900FBE26
S1130AF00F901F9018951F920F920FB60F9211240A
S1130B002F933F934F935F936F937F938F939F9311
S1130B10AF93BF93EF93FF9380916E0080FF0DC05E
S1130B2080917500893038F080916E008E7F8093BB
S1130B306E00929802C08CDF8CB9FF91EF91BF9147
S1130B40AF919F918F917F916F915F914F913F9161
S1130B502F910F900FBE0F901F90189583E089B9C5
S1130B608AB188618AB981E08DDF81E091DF1092DA
S1130B706F000895BF92CF92DF92EF92FF920F938E
S1130B801F93CF93DF939091730080917400981713
S1130B9041F180916E0080FD24C0509174005F5F2C
S1130BA05F70852F90E09C01220F331F220F331FAB
S1130BB0220F331F820F931F805A9E4F9C01275F81
S1130BC03F4FFC01DF01A81BB90B4191A954BF4F52
S1130BD04C93E217F307B1F7509374001092750029
S1130BE042DF80916E0083FD4AC08091760090912F
S1130BF07700891B8F70893008F441C0B090710070
S1130C0081E08B0D8F70B82EE82EF12CF701EE0FDA
S1130C10FF1FEE0FFF1FEE0FFF1FEE0DFF1DCF0195
S1130C2080549F4F6C018C01075F1F4FEC01F0DE75
S1130C308993C017D107D9F7F60190E080E021919C
S1130C40920F8F5F8830D9F7F701EE0FFF1FEE0F79
S1130C50FF1FEE0FFF1FEE0DFF1DE054FF4F8085B9
S1130C60981308C080916E00886080936E00B092E3
S1130C70710005C080916E00806180936E00DF91E9
S1130C80CF911F910F91FF90EF90DF90CF90BF9085
S1130C90089580917000882341F080917000815004
S1130CA08093700010926D00089580916D00811101
S1130CB007C0809176008093770081E080936D0077
S1130CC00895809172008F5F8F7090E09C01220FD5
S1130CD0331F220F331F220F331F820F931F8054A1
S1130CE09F4F0895FC01509173005F5F5F70852FE3
S1130CF090E0DC01AA0FBB1FAA0FBB1FAA0FBB1FEA
S1130D00A80FB91FA05ABE4F30E020E040814D9398
S1130D104191340F2F5F2830C9F7FC01EE0FFF1FFC
S1130D20EE0FFF1FEE0FFF1F8E0F9F1FFC01E05AF7
S1130D30FE4F308750937300089590E08B309105F7
S1130D4020F5FC01ED5EFF4F09948FE289B9089507
S1130D508FE189B9089587E189B908958FE089B948
S1130D6008958BE089B9089587E089B9089585E0ED
S1130D7089B9089583E089B9089581E089B908950E
S1130D8019B808958FEF89B9089587E189B908954D
S1130D90DC01CB01FC01E199FECF06C0FFBBEEBB39
S1130DA0E09A31960DB20D9241505040B8F7089533
S1130DB0262FE199FECF9FBB8EBBE09A01970DB21F
S1130DC0021631F02DBB0FB6F894E29AE19A0FBEE9
S1130DD00895DC01CB0102C02D9105D04150504053
S1130DE0D8F70895262FE199FECF9FBB8EBB2DBB6C
S1130DF00FB6F894E29AE19A0FBE01960895F8941A
S1050E00FFCF1E
S9030000FC
